{
  "_format": "hh-sol-artifact-1",
  "contractName": "ProductRegistry",
  "sourceName": "contracts/ProductRegistry.sol",
  "abi": [
    {
      "inputs": [
        {
          "internalType": "address",
          "name": "artisanRegistryAddress",
          "type": "address"
        }
      ],
      "stateMutability": "nonpayable",
      "type": "constructor"
    },
    {
      "anonymous": false,
      "inputs": [
        {
          "indexed": true,
          "internalType": "bytes32",
          "name": "productHash",
          "type": "bytes32"
        },
        {
          "indexed": true,
          "internalType": "address",
          "name": "artisan",
          "type": "address"
        },
        {
          "indexed": false,
          "internalType": "string",
          "name": "giTag",
          "type": "string"
        }
      ],
      "name": "ProductRegistered",
      "type": "event"
    },
    {
      "anonymous": false,
      "inputs": [
        {
          "indexed": true,
          "internalType": "bytes32",
          "name": "productHash",
          "type": "bytes32"
        },
        {
          "indexed": true,
          "internalType": "address",
          "name": "from",
          "type": "address"
        },
        {
          "indexed": true,
          "internalType": "address",
          "name": "to",
          "type": "address"
        },
        {
          "indexed": false,
          "internalType": "uint256",
          "name": "transferCount",
          "type": "uint256"
        },
        {
          "indexed": false,
          "internalType": "uint256",
          "name": "royaltyBps",
          "type": "uint256"
        },
        {
          "indexed": false,
          "internalType": "uint256",
          "name": "royaltyAmount",
          "type": "uint256"
        }
      ],
      "name": "ProductTransferred",
      "type": "event"
    },
    {
      "inputs": [],
      "name": "artisanRegistry",
      "outputs": [
        {
          "internalType": "contract IArtisanRegistry",
          "name": "",
          "type": "address"
        }
      ],
      "stateMutability": "view",
      "type": "function"
    },
    {
      "inputs": [
        {
          "internalType": "bytes32",
          "name": "",
          "type": "bytes32"
        }
      ],
      "name": "products",
      "outputs": [
        {
          "internalType": "bytes32",
          "name": "productHash",
          "type": "bytes32"
        },
        {
          "internalType": "string",
          "name": "ipfsCid",
          "type": "string"
        },
        {
          "internalType": "address",
          "name": "artisan",
          "type": "address"
        },
        {
          "internalType": "string",
          "name": "productName",
          "type": "string"
        },
        {
          "internalType": "string",
          "name": "giTag",
          "type": "string"
        },
        {
          "internalType": "uint256",
          "name": "origin_lat",
          "type": "uint256"
        },
        {
          "internalType": "uint256",
          "name": "origin_lng",
          "type": "uint256"
        },
        {
          "internalType": "uint256",
          "name": "registeredAt",
          "type": "uint256"
        },
        {
          "internalType": "uint256",
          "name": "transferCount",
          "type": "uint256"
        }
      ],
      "stateMutability": "view",
      "type": "function"
    },
    {
      "inputs": [
        {
          "internalType": "bytes32",
          "name": "hash",
          "type": "bytes32"
        },
        {
          "internalType": "string",
          "name": "cid",
          "type": "string"
        },
        {
          "internalType": "string",
          "name": "name",
          "type": "string"
        },
        {
          "internalType": "string",
          "name": "giTag",
          "type": "string"
        },
        {
          "internalType": "uint256",
          "name": "lat",
          "type": "uint256"
        },
        {
          "internalType": "uint256",
          "name": "lng",
          "type": "uint256"
        }
      ],
      "name": "registerProduct",
      "outputs": [],
      "stateMutability": "nonpayable",
      "type": "function"
    },
    {
      "inputs": [
        {
          "internalType": "bytes32",
          "name": "hash",
          "type": "bytes32"
        },
        {
          "internalType": "address",
          "name": "newOwner",
          "type": "address"
        }
      ],
      "name": "transferProduct",
      "outputs": [],
      "stateMutability": "payable",
      "type": "function"
    },
    {
      "inputs": [
        {
          "internalType": "bytes32",
          "name": "hash",
          "type": "bytes32"
        }
      ],
      "name": "verifyProduct",
      "outputs": [
        {
          "components": [
            {
              "internalType": "bytes32",
              "name": "productHash",
              "type": "bytes32"
            },
            {
              "internalType": "string",
              "name": "ipfsCid",
              "type": "string"
            },
            {
              "internalType": "address",
              "name": "artisan",
              "type": "address"
            },
            {
              "internalType": "string",
              "name": "productName",
              "type": "string"
            },
            {
              "internalType": "string",
              "name": "giTag",
              "type": "string"
            },
            {
              "internalType": "uint256",
              "name": "origin_lat",
              "type": "uint256"
            },
            {
              "internalType": "uint256",
              "name": "origin_lng",
              "type": "uint256"
            },
            {
              "internalType": "uint256",
              "name": "registeredAt",
              "type": "uint256"
            },
            {
              "internalType": "uint256",
              "name": "transferCount",
              "type": "uint256"
            },
            {
              "internalType": "address[]",
              "name": "handlers",
              "type": "address[]"
            },
            {
              "internalType": "bool[]",
              "name": "handlerVerified",
              "type": "bool[]"
            }
          ],
          "internalType": "struct ProductRegistry.ProductRecord",
          "name": "",
          "type": "tuple"
        },
        {
          "internalType": "uint8",
          "name": "terroir",
          "type": "uint8"
        }
      ],
      "stateMutability": "view",
      "type": "function"
    }
  ],
  "bytecode": "0x60a06040523480156200001157600080fd5b50604051620024503803806200245083398181016040528101906200003791906200014e565b600073ffffffffffffffffffffffffffffffffffffffff168173ffffffffffffffffffffffffffffffffffffffff1603620000a9576040517f08c379a0000000000000000000000000000000000000000000000000000000008152600401620000a090620001e1565b60405180910390fd5b8073ffffffffffffffffffffffffffffffffffffffff1660808173ffffffffffffffffffffffffffffffffffffffff16815250505062000203565b600080fd5b600073ffffffffffffffffffffffffffffffffffffffff82169050919050565b60006200011682620000e9565b9050919050565b620001288162000109565b81146200013457600080fd5b50565b60008151905062000148816200011d565b92915050565b600060208284031215620001675762000166620000e4565b5b6000620001778482850162000137565b91505092915050565b600082825260208201905092915050565b7f496e76616c6964206172746973616e2072656769737472790000000000000000600082015250565b6000620001c960188362000180565b9150620001d68262000191565b602082019050919050565b60006020820190508181036000830152620001fc81620001ba565b9050919050565b6080516122236200022d600039600081816101440152818161053e0152610a8901526122236000f3fe60806040526004361061004a5760003560e01c80632e60930e1461004f578063383d36b4146100785780637905439114610094578063c1283265146100d9578063eda4596514610104575b600080fd5b34801561005b57600080fd5b50610076600480360381019061007191906111c5565b610142565b005b610092600480360381019061008d9190611312565b610393565b005b3480156100a057600080fd5b506100bb60048036038101906100b69190611352565b610881565b6040516100d09998979695949392919061143c565b60405180910390f35b3480156100e557600080fd5b506100ee610a87565b6040516100fb919061153d565b60405180910390f35b34801561011057600080fd5b5061012b60048036038101906101269190611352565b610aab565b60405161013992919061186f565b60405180910390f35b7f000000000000000000000000000000000000000000000000000000000000000073ffffffffffffffffffffffffffffffffffffffff166306819f76336040518263ffffffff1660e01b815260040161019b919061189f565b602060405180830381865afa1580156101b8573d6000803e3d6000fd5b505050506040513d601f19601f820116820180604052508101906101dc91906118e6565b61021b576040517f08c379a00000000000000000000000000000000000000000000000000000000081526004016102129061195f565b60405180910390fd5b60008060008b81526020019081526020016000206007015414610273576040517f08c379a000000000000000000000000000000000000000000000000000000000815260040161026a906119cb565b60405180910390fd5b60008060008b8152602001908152602001600020905089816000018190555088888260010191826102a5929190611c27565b50338160020160006101000a81548173ffffffffffffffffffffffffffffffffffffffff021916908373ffffffffffffffffffffffffffffffffffffffff16021790555086868260030191826102fc929190611c27565b508484826004019182610310929190611c27565b50828160050181905550818160060181905550428160070181905550600081600801819055503373ffffffffffffffffffffffffffffffffffffffff168a7f7ecc8a52aabc9622bf5ed8adde3458cdb35d6940c59bf1052230a49390821c52878760405161037f929190611d33565b60405180910390a350505050505050505050565b6000806000848152602001908152602001600020905060008160070154036103f0576040517f08c379a00000000000000000000000000000000000000000000000000000000081526004016103e790611da3565b60405180910390fd5b600073ffffffffffffffffffffffffffffffffffffffff168273ffffffffffffffffffffffffffffffffffffffff160361045f576040517f08c379a000000000000000000000000000000000000000000000000000000000815260040161045690611e0f565b60405180910390fd5b3373ffffffffffffffffffffffffffffffffffffffff1661047f82610f39565b73ffffffffffffffffffffffffffffffffffffffff16146104d5576040517f08c379a00000000000000000000000000000000000000000000000000000000081526004016104cc90611e7b565b60405180910390fd5b80600901829080600181540180825580915050600190039060005260206000200160009091909190916101000a81548173ffffffffffffffffffffffffffffffffffffffff021916908373ffffffffffffffffffffffffffffffffffffffff16021790555060007f000000000000000000000000000000000000000000000000000000000000000073ffffffffffffffffffffffffffffffffffffffff166306819f76846040518263ffffffff1660e01b8152600401610595919061189f565b602060405180830381865afa1580156105b2573d6000803e3d6000fd5b505050506040513d601f19601f820116820180604052508101906105d691906118e6565b905081600a018190806001815401808255809150506001900390600052602060002090602091828204019190069091909190916101000a81548160ff02191690831515021790555060018260080160008282546106339190611eca565b9250508190555060006106498360080154610fd1565b90506000612710823461065c9190611efe565b6106669190611f6f565b905060008111156107435760008460020160009054906101000a900473ffffffffffffffffffffffffffffffffffffffff1673ffffffffffffffffffffffffffffffffffffffff16826040516106bb90611fd1565b60006040518083038185875af1925050503d80600081146106f8576040519150601f19603f3d011682016040523d82523d6000602084013e6106fd565b606091505b5050905080610741576040517f08c379a000000000000000000000000000000000000000000000000000000000815260040161073890612032565b60405180910390fd5b505b600081346107519190612052565b9050600081111561080a5760003373ffffffffffffffffffffffffffffffffffffffff168260405161078290611fd1565b60006040518083038185875af1925050503d80600081146107bf576040519150601f19603f3d011682016040523d82523d6000602084013e6107c4565b606091505b5050905080610808576040517f08c379a00000000000000000000000000000000000000000000000000000000081526004016107ff906120d2565b60405180910390fd5b505b8573ffffffffffffffffffffffffffffffffffffffff163373ffffffffffffffffffffffffffffffffffffffff16887f7c3052ac5e0809e5715f8150410f1022b77eb6e4c150958c18ba11940cc363b688600801548787604051610870939291906120f2565b60405180910390a450505050505050565b60006020528060005260406000206000915090508060000154908060010180546108aa90611a54565b80601f01602080910402602001604051908101604052809291908181526020018280546108d690611a54565b80156109235780601f106108f857610100808354040283529160200191610923565b820191906000526020600020905b81548152906001019060200180831161090657829003601f168201915b5050505050908060020160009054906101000a900473ffffffffffffffffffffffffffffffffffffffff169080600301805461095e90611a54565b80601f016020809104026020016040519081016040528092919081815260200182805461098a90611a54565b80156109d75780601f106109ac576101008083540402835291602001916109d7565b820191906000526020600020905b8154815290600101906020018083116109ba57829003601f168201915b5050505050908060040180546109ec90611a54565b80601f0160208091040260200160405190810160405280929190818152602001828054610a1890611a54565b8015610a655780601f10610a3a57610100808354040283529160200191610a65565b820191906000526020600020905b815481529060010190602001808311610a4857829003601f168201915b5050505050908060050154908060060154908060070154908060080154905089565b7f000000000000000000000000000000000000000000000000000000000000000081565b610ab3611077565b6000806000808581526020019081526020016000206040518061016001604052908160008201548152602001600182018054610aee90611a54565b80601f0160208091040260200160405190810160405280929190818152602001828054610b1a90611a54565b8015610b675780601f10610b3c57610100808354040283529160200191610b67565b820191906000526020600020905b815481529060010190602001808311610b4a57829003601f168201915b505050505081526020016002820160009054906101000a900473ffffffffffffffffffffffffffffffffffffffff1673ffffffffffffffffffffffffffffffffffffffff1673ffffffffffffffffffffffffffffffffffffffff168152602001600382018054610bd690611a54565b80601f0160208091040260200160405190810160405280929190818152602001828054610c0290611a54565b8015610c4f5780601f10610c2457610100808354040283529160200191610c4f565b820191906000526020600020905b815481529060010190602001808311610c3257829003601f168201915b50505050508152602001600482018054610c6890611a54565b80601f0160208091040260200160405190810160405280929190818152602001828054610c9490611a54565b8015610ce15780601f10610cb657610100808354040283529160200191610ce1565b820191906000526020600020905b815481529060010190602001808311610cc457829003601f168201915b505050505081526020016005820154815260200160068201548152602001600782015481526020016008820154815260200160098201805480602002602001604051908101604052809291908181526020018280548015610d9757602002820191906000526020600020905b8160009054906101000a900473ffffffffffffffffffffffffffffffffffffffff1673ffffffffffffffffffffffffffffffffffffffff1681526020019060010190808311610d4d575b50505050508152602001600a8201805480602002602001604051908101604052809291908181526020018280548015610e1457602002820191906000526020600020906000905b82829054906101000a900460ff16151581526020019060010190602082600001049283019260010382029150808411610dde5790505b505050505081525050905060008160e0015103610e66576040517f08c379a0000000000000000000000000000000000000000000000000000000008152600401610e5d90611da3565b60405180910390fd5b60006064905060005b82610140015151811015610ec4578261014001518181518110610e9557610e94612129565b5b6020026020010151610eb157600f82610eae9190612162565b91505b8080610ebc906121a5565b915050610e6f565b50600a8261010001511115610ee357600a81610ee09190612162565b90505b620151808260e00151610ef69190611eca565b42108015610f0957506003826101000151115b15610f1e57601481610f1b9190612162565b90505b6000811215610f2c57600090505b8181935093505050915091565b600080826009018054905003610f75578160020160009054906101000a900473ffffffffffffffffffffffffffffffffffffffff169050610fcc565b8160090160018360090180549050610f8d9190612052565b81548110610f9e57610f9d612129565b5b9060005260206000200160009054906101000a900473ffffffffffffffffffffffffffffffffffffffff1690505b919050565b600080610fdd83611008565b905060008103610ff1576000915050611003565b80610fa0610fff9190611f6f565b9150505b919050565b600080820361101a5760009050611072565b6000600260018461102b9190611eca565b6110359190611f6f565b90508291505b818110156110705780915060028182856110559190611f6f565b61105f9190611eca565b6110699190611f6f565b905061103b565b505b919050565b6040518061016001604052806000801916815260200160608152602001600073ffffffffffffffffffffffffffffffffffffffff16815260200160608152602001606081526020016000815260200160008152602001600081526020016000815260200160608152602001606081525090565b600080fd5b600080fd5b6000819050919050565b611107816110f4565b811461111257600080fd5b50565b600081359050611124816110fe565b92915050565b600080fd5b600080fd5b600080fd5b60008083601f84011261114f5761114e61112a565b5b8235905067ffffffffffffffff81111561116c5761116b61112f565b5b60208301915083600182028301111561118857611187611134565b5b9250929050565b6000819050919050565b6111a28161118f565b81146111ad57600080fd5b50565b6000813590506111bf81611199565b92915050565b600080600080600080600080600060c08a8c0312156111e7576111e66110ea565b5b60006111f58c828d01611115565b99505060208a013567ffffffffffffffff811115611216576112156110ef565b5b6112228c828d01611139565b985098505060408a013567ffffffffffffffff811115611245576112446110ef565b5b6112518c828d01611139565b965096505060608a013567ffffffffffffffff811115611274576112736110ef565b5b6112808c828d01611139565b945094505060806112938c828d016111b0565b92505060a06112a48c828d016111b0565b9150509295985092959850929598565b600073ffffffffffffffffffffffffffffffffffffffff82169050919050565b60006112df826112b4565b9050919050565b6112ef816112d4565b81146112fa57600080fd5b50565b60008135905061130c816112e6565b92915050565b60008060408385031215611329576113286110ea565b5b600061133785828601611115565b9250506020611348858286016112fd565b9150509250929050565b600060208284031215611368576113676110ea565b5b600061137684828501611115565b91505092915050565b611388816110f4565b82525050565b600081519050919050565b600082825260208201905092915050565b60005b838110156113c85780820151818401526020810190506113ad565b60008484015250505050565b6000601f19601f8301169050919050565b60006113f08261138e565b6113fa8185611399565b935061140a8185602086016113aa565b611413816113d4565b840191505092915050565b611427816112d4565b82525050565b6114368161118f565b82525050565b600061012082019050611452600083018c61137f565b8181036020830152611464818b6113e5565b9050611473604083018a61141e565b818103606083015261148581896113e5565b9050818103608083015261149981886113e5565b90506114a860a083018761142d565b6114b560c083018661142d565b6114c260e083018561142d565b6114d061010083018461142d565b9a9950505050505050505050565b6000819050919050565b60006115036114fe6114f9846112b4565b6114de565b6112b4565b9050919050565b6000611515826114e8565b9050919050565b60006115278261150a565b9050919050565b6115378161151c565b82525050565b6000602082019050611552600083018461152e565b92915050565b611561816110f4565b82525050565b600082825260208201905092915050565b60006115838261138e565b61158d8185611567565b935061159d8185602086016113aa565b6115a6816113d4565b840191505092915050565b6115ba816112d4565b82525050565b6115c98161118f565b82525050565b600081519050919050565b600082825260208201905092915050565b6000819050602082019050919050565b600061160783836115b1565b60208301905092915050565b6000602082019050919050565b600061162b826115cf565b61163581856115da565b9350611640836115eb565b8060005b8381101561167157815161165888826115fb565b975061166383611613565b925050600181019050611644565b5085935050505092915050565b600081519050919050565b600082825260208201905092915050565b6000819050602082019050919050565b60008115159050919050565b6116bf816116aa565b82525050565b60006116d183836116b6565b60208301905092915050565b6000602082019050919050565b60006116f58261167e565b6116ff8185611689565b935061170a8361169a565b8060005b8381101561173b57815161172288826116c5565b975061172d836116dd565b92505060018101905061170e565b5085935050505092915050565b6000610160830160008301516117616000860182611558565b50602083015184820360208601526117798282611578565b915050604083015161178e60408601826115b1565b50606083015184820360608601526117a68282611578565b915050608083015184820360808601526117c08282611578565b91505060a08301516117d560a08601826115c0565b5060c08301516117e860c08601826115c0565b5060e08301516117fb60e08601826115c0565b506101008301516118106101008601826115c0565b5061012083015184820361012086015261182a8282611620565b91505061014083015184820361014086015261184682826116ea565b9150508091505092915050565b600060ff82169050919050565b61186981611853565b82525050565b600060408201905081810360008301526118898185611748565b90506118986020830184611860565b9392505050565b60006020820190506118b4600083018461141e565b92915050565b6118c3816116aa565b81146118ce57600080fd5b50565b6000815190506118e0816118ba565b92915050565b6000602082840312156118fc576118fb6110ea565b5b600061190a848285016118d1565b91505092915050565b7f4f6e6c79207665726966696564206172746973616e7300000000000000000000600082015250565b6000611949601683611399565b915061195482611913565b602082019050919050565b600060208201905081810360008301526119788161193c565b9050919050565b7f50726f6475637420616c72656164792072656769737465726564000000000000600082015250565b60006119b5601a83611399565b91506119c08261197f565b602082019050919050565b600060208201905081810360008301526119e4816119a8565b9050919050565b600082905092915050565b7f4e487b7100000000000000000000000000000000000000000000000000000000600052604160045260246000fd5b7f4e487b7100000000000000000000000000000000000000000000000000000000600052602260045260246000fd5b60006002820490506001821680611a6c57607f821691505b602082108103611a7f57611a7e611a25565b5b50919050565b60008190508160005260206000209050919050565b60006020601f8301049050919050565b600082821b905092915050565b600060088302611ae77fffffffffffffffffffffffffffffffffffffffffffffffffffffffffffffffff82611aaa565b611af18683611aaa565b95508019841693508086168417925050509392505050565b6000611b24611b1f611b1a8461118f565b6114de565b61118f565b9050919050565b6000819050919050565b611b3e83611b09565b611b52611b4a82611b2b565b848454611ab7565b825550505050565b600090565b611b67611b5a565b611b72818484611b35565b505050565b5b81811015611b9657611b8b600082611b5f565b600181019050611b78565b5050565b601f821115611bdb57611bac81611a85565b611bb584611a9a565b81016020851015611bc4578190505b611bd8611bd085611a9a565b830182611b77565b50505b505050565b600082821c905092915050565b6000611bfe60001984600802611be0565b1980831691505092915050565b6000611c178383611bed565b9150826002028217905092915050565b611c3183836119eb565b67ffffffffffffffff811115611c4a57611c496119f6565b5b611c548254611a54565b611c5f828285611b9a565b6000601f831160018114611c8e5760008415611c7c578287013590505b611c868582611c0b565b865550611cee565b601f198416611c9c86611a85565b60005b82811015611cc457848901358255600182019150602085019450602081019050611c9f565b86831015611ce15784890135611cdd601f891682611bed565b8355505b6001600288020188555050505b50505050505050565b82818337600083830152505050565b6000611d128385611399565b9350611d1f838584611cf7565b611d28836113d4565b840190509392505050565b60006020820190508181036000830152611d4e818486611d06565b90509392505050565b7f50726f64756374206e6f7420666f756e64000000000000000000000000000000600082015250565b6000611d8d601183611399565b9150611d9882611d57565b602082019050919050565b60006020820190508181036000830152611dbc81611d80565b9050919050565b7f496e76616c6964206e6577206f776e6572000000000000000000000000000000600082015250565b6000611df9601183611399565b9150611e0482611dc3565b602082019050919050565b60006020820190508181036000830152611e2881611dec565b9050919050565b7f43616c6c6572206973206e6f742063757272656e74206f776e65720000000000600082015250565b6000611e65601b83611399565b9150611e7082611e2f565b602082019050919050565b60006020820190508181036000830152611e9481611e58565b9050919050565b7f4e487b7100000000000000000000000000000000000000000000000000000000600052601160045260246000fd5b6000611ed58261118f565b9150611ee08361118f565b9250828201905080821115611ef857611ef7611e9b565b5b92915050565b6000611f098261118f565b9150611f148361118f565b9250828202611f228161118f565b91508282048414831517611f3957611f38611e9b565b5b5092915050565b7f4e487b7100000000000000000000000000000000000000000000000000000000600052601260045260246000fd5b6000611f7a8261118f565b9150611f858361118f565b925082611f9557611f94611f40565b5b828204905092915050565b600081905092915050565b50565b6000611fbb600083611fa0565b9150611fc682611fab565b600082019050919050565b6000611fdc82611fae565b9150819050919050565b7f526f79616c7479207061796d656e74206661696c656400000000000000000000600082015250565b600061201c601683611399565b915061202782611fe6565b602082019050919050565b6000602082019050818103600083015261204b8161200f565b9050919050565b600061205d8261118f565b91506120688361118f565b92508282039050818111156120805761207f611e9b565b5b92915050565b7f53656c6c6572207061796f7574206661696c6564000000000000000000000000600082015250565b60006120bc601483611399565b91506120c782612086565b602082019050919050565b600060208201905081810360008301526120eb816120af565b9050919050565b6000606082019050612107600083018661142d565b612114602083018561142d565b612121604083018461142d565b949350505050565b7f4e487b7100000000000000000000000000000000000000000000000000000000600052603260045260246000fd5b6000819050919050565b600061216d82612158565b915061217883612158565b925082820390508181126000841216828213600085121516171561219f5761219e611e9b565b5b92915050565b60006121b08261118f565b91507fffffffffffffffffffffffffffffffffffffffffffffffffffffffffffffffff82036121e2576121e1611e9b565b5b60018201905091905056fea2646970667358221220b7cac77fcc84870a403fda99d47d31d9f48320c3b6ed5ad6030ecf0b33bb547c64736f6c63430008140033",
  "linkReferences": {},
  "deployedLinkReferences": {}
}