{
  "_format": "hh-sol-artifact-1",
  "contractName": "ArtisanRegistry",
  "sourceName": "contracts/ArtisanRegistry.sol",
  "abi": [
    {
      "inputs": [],
      "stateMutability": "nonpayable",
      "type": "constructor"
    },
    {
      "anonymous": false,
      "inputs": [
        {
          "indexed": true,
          "internalType": "address",
          "name": "owner",
          "type": "address"
        },
        {
          "indexed": true,
          "internalType": "address",
          "name": "approved",
          "type": "address"
        },
        {
          "indexed": true,
          "internalType": "uint256",
          "name": "tokenId",
          "type": "uint256"
        }
      ],
      "name": "Approval",
      "type": "event"
    },
    {
      "anonymous": false,
      "inputs": [
        {
          "indexed": true,
          "internalType": "address",
          "name": "owner",
          "type": "address"
        },
        {
          "indexed": true,
          "internalType": "address",
          "name": "operator",
          "type": "address"
        },
        {
          "indexed": false,
          "internalType": "bool",
          "name": "approved",
          "type": "bool"
        }
      ],
      "name": "ApprovalForAll",
      "type": "event"
    },
    {
      "anonymous": false,
      "inputs": [
        {
          "indexed": true,
          "internalType": "address",
          "name": "artisan",
          "type": "address"
        },
        {
          "indexed": false,
          "internalType": "string",
          "name": "craft",
          "type": "string"
        },
        {
          "indexed": false,
          "internalType": "uint8",
          "name": "craftScore",
          "type": "uint8"
        }
      ],
      "name": "ArtisanRegistered",
      "type": "event"
    },
    {
      "anonymous": false,
      "inputs": [
        {
          "indexed": true,
          "internalType": "address",
          "name": "from",
          "type": "address"
        },
        {
          "indexed": true,
          "internalType": "address",
          "name": "to",
          "type": "address"
        },
        {
          "indexed": true,
          "internalType": "uint256",
          "name": "tokenId",
          "type": "uint256"
        }
      ],
      "name": "Transfer",
      "type": "event"
    },
    {
      "inputs": [
        {
          "internalType": "address",
          "name": "to",
          "type": "address"
        },
        {
          "internalType": "uint256",
          "name": "tokenId",
          "type": "uint256"
        }
      ],
      "name": "approve",
      "outputs": [],
      "stateMutability": "nonpayable",
      "type": "function"
    },
    {
      "inputs": [
        {
          "internalType": "address",
          "name": "",
          "type": "address"
        }
      ],
      "name": "artisanTokenId",
      "outputs": [
        {
          "internalType": "uint256",
          "name": "",
          "type": "uint256"
        }
      ],
      "stateMutability": "view",
      "type": "function"
    },
    {
      "inputs": [
        {
          "internalType": "address",
          "name": "",
          "type": "address"
        }
      ],
      "name": "artisans",
      "outputs": [
        {
          "internalType": "address",
          "name": "wallet",
          "type": "address"
        },
        {
          "internalType": "string",
          "name": "name",
          "type": "string"
        },
        {
          "internalType": "string",
          "name": "craft",
          "type": "string"
        },
        {
          "internalType": "string",
          "name": "giRegion",
          "type": "string"
        },
        {
          "internalType": "uint8",
          "name": "craftScore",
          "type": "uint8"
        },
        {
          "internalType": "uint256",
          "name": "registeredAt",
          "type": "uint256"
        },
        {
          "internalType": "bool",
          "name": "verified",
          "type": "bool"
        }
      ],
      "stateMutability": "view",
      "type": "function"
    },
    {
      "inputs": [
        {
          "internalType": "address",
          "name": "owner",
          "type": "address"
        }
      ],
      "name": "balanceOf",
      "outputs": [
        {
          "internalType": "uint256",
          "name": "",
          "type": "uint256"
        }
      ],
      "stateMutability": "view",
      "type": "function"
    },
    {
      "inputs": [
        {
          "internalType": "uint256",
          "name": "tokenId",
          "type": "uint256"
        }
      ],
      "name": "getApproved",
      "outputs": [
        {
          "internalType": "address",
          "name": "",
          "type": "address"
        }
      ],
      "stateMutability": "view",
      "type": "function"
    },
    {
      "inputs": [
        {
          "internalType": "address",
          "name": "wallet",
          "type": "address"
        }
      ],
      "name": "getArtisan",
      "outputs": [
        {
          "components": [
            {
              "internalType": "address",
              "name": "wallet",
              "type": "address"
            },
            {
              "internalType": "string",
              "name": "name",
              "type": "string"
            },
            {
              "internalType": "string",
              "name": "craft",
              "type": "string"
            },
            {
              "internalType": "string",
              "name": "giRegion",
              "type": "string"
            },
            {
              "internalType": "uint8",
              "name": "craftScore",
              "type": "uint8"
            },
            {
              "internalType": "uint256",
              "name": "registeredAt",
              "type": "uint256"
            },
            {
              "internalType": "bool",
              "name": "verified",
              "type": "bool"
            }
          ],
          "internalType": "struct ArtisanRegistry.ArtisanRecord",
          "name": "",
          "type": "tuple"
        }
      ],
      "stateMutability": "view",
      "type": "function"
    },
    {
      "inputs": [
        {
          "internalType": "address",
          "name": "owner",
          "type": "address"
        },
        {
          "internalType": "address",
          "name": "operator",
          "type": "address"
        }
      ],
      "name": "isApprovedForAll",
      "outputs": [
        {
          "internalType": "bool",
          "name": "",
          "type": "bool"
        }
      ],
      "stateMutability": "view",
      "type": "function"
    },
    {
      "inputs": [
        {
          "internalType": "address",
          "name": "wallet",
          "type": "address"
        }
      ],
      "name": "isVerifiedArtisan",
      "outputs": [
        {
          "internalType": "bool",
          "name": "",
          "type": "bool"
        }
      ],
      "stateMutability": "view",
      "type": "function"
    },
    {
      "inputs": [],
      "name": "name",
      "outputs": [
        {
          "internalType": "string",
          "name": "",
          "type": "string"
        }
      ],
      "stateMutability": "view",
      "type": "function"
    },
    {
      "inputs": [
        {
          "internalType": "uint256",
          "name": "tokenId",
          "type": "uint256"
        }
      ],
      "name": "ownerOf",
      "outputs": [
        {
          "internalType": "address",
          "name": "",
          "type": "address"
        }
      ],
      "stateMutability": "view",
      "type": "function"
    },
    {
      "inputs": [
        {
          "internalType": "string",
          "name": "name",
          "type": "string"
        },
        {
          "internalType": "string",
          "name": "craft",
          "type": "string"
        },
        {
          "internalType": "string",
          "name": "giRegion",
          "type": "string"
        },
        {
          "internalType": "uint8",
          "name": "craftScore",
          "type": "uint8"
        }
      ],
      "name": "registerArtisan",
      "outputs": [],
      "stateMutability": "nonpayable",
      "type": "function"
    },
    {
      "inputs": [
        {
          "internalType": "address",
          "name": "from",
          "type": "address"
        },
        {
          "internalType": "address",
          "name": "to",
          "type": "address"
        },
        {
          "internalType": "uint256",
          "name": "tokenId",
          "type": "uint256"
        }
      ],
      "name": "safeTransferFrom",
      "outputs": [],
      "stateMutability": "nonpayable",
      "type": "function"
    },
    {
      "inputs": [
        {
          "internalType": "address",
          "name": "from",
          "type": "address"
        },
        {
          "internalType": "address",
          "name": "to",
          "type": "address"
        },
        {
          "internalType": "uint256",
          "name": "tokenId",
          "type": "uint256"
        },
        {
          "internalType": "bytes",
          "name": "data",
          "type": "bytes"
        }
      ],
      "name": "safeTransferFrom",
      "outputs": [],
      "stateMutability": "nonpayable",
      "type": "function"
    },
    {
      "inputs": [
        {
          "internalType": "address",
          "name": "operator",
          "type": "address"
        },
        {
          "internalType": "bool",
          "name": "approved",
          "type": "bool"
        }
      ],
      "name": "setApprovalForAll",
      "outputs": [],
      "stateMutability": "nonpayable",
      "type": "function"
    },
    {
      "inputs": [
        {
          "internalType": "bytes4",
          "name": "interfaceId",
          "type": "bytes4"
        }
      ],
      "name": "supportsInterface",
      "outputs": [
        {
          "internalType": "bool",
          "name": "",
          "type": "bool"
        }
      ],
      "stateMutability": "view",
      "type": "function"
    },
    {
      "inputs": [],
      "name": "symbol",
      "outputs": [
        {
          "internalType": "string",
          "name": "",
          "type": "string"
        }
      ],
      "stateMutability": "view",
      "type": "function"
    },
    {
      "inputs": [
        {
          "internalType": "uint256",
          "name": "tokenId",
          "type": "uint256"
        }
      ],
      "name": "tokenURI",
      "outputs": [
        {
          "internalType": "string",
          "name": "",
          "type": "string"
        }
      ],
      "stateMutability": "view",
      "type": "function"
    },
    {
      "inputs": [
        {
          "internalType": "address",
          "name": "from",
          "type": "address"
        },
        {
          "internalType": "address",
          "name": "to",
          "type": "address"
        },
        {
          "internalType": "uint256",
          "name": "tokenId",
          "type": "uint256"
        }
      ],
      "name": "transferFrom",
      "outputs": [],
      "stateMutability": "nonpayable",
      "type": "function"
    }
  ],
  "bytecode": "0x60806040523480156200001157600080fd5b506040518060400160405280601581526020017f506172616d70617261204172746973616e2053425400000000000000000000008152506040518060400160405280600581526020017f504153425400000000000000000000000000000000000000000000000000000081525081600090816200008f919062000324565b508060019081620000a1919062000324565b5050506200040b565b600081519050919050565b7f4e487b7100000000000000000000000000000000000000000000000000000000600052604160045260246000fd5b7f4e487b7100000000000000000000000000000000000000000000000000000000600052602260045260246000fd5b600060028204905060018216806200012c57607f821691505b602082108103620001425762000141620000e4565b5b50919050565b60008190508160005260206000209050919050565b60006020601f8301049050919050565b600082821b905092915050565b600060088302620001ac7fffffffffffffffffffffffffffffffffffffffffffffffffffffffffffffffff826200016d565b620001b886836200016d565b95508019841693508086168417925050509392505050565b6000819050919050565b6000819050919050565b600062000205620001ff620001f984620001d0565b620001da565b620001d0565b9050919050565b6000819050919050565b6200022183620001e4565b6200023962000230826200020c565b8484546200017a565b825550505050565b600090565b6200025062000241565b6200025d81848462000216565b505050565b5b8181101562000285576200027960008262000246565b60018101905062000263565b5050565b601f821115620002d4576200029e8162000148565b620002a9846200015d565b81016020851015620002b9578190505b620002d1620002c8856200015d565b83018262000262565b50505b505050565b600082821c905092915050565b6000620002f960001984600802620002d9565b1980831691505092915050565b6000620003148383620002e6565b9150826002028217905092915050565b6200032f82620000aa565b67ffffffffffffffff8111156200034b576200034a620000b5565b5b62000357825462000113565b6200036482828562000289565b600060209050601f8311600181146200039c576000841562000387578287015190505b62000393858262000306565b86555062000403565b601f198416620003ac8662000148565b60005b82811015620003d657848901518255600182019150602085019450602081019050620003af565b86831015620003f65784890151620003f2601f891682620002e6565b8355505b6001600288020188555050505b505050505050565b61372d806200041b6000396000f3fe608060405234801561001057600080fd5b50600436106101165760003560e01c806370a08231116100a2578063bba2f2db11610071578063bba2f2db14610303578063c87b56dd14610333578063cf259d6014610363578063e985e9c514610399578063edd06526146103c957610116565b806370a082311461027d57806395d89b41146102ad578063a22cb465146102cb578063b88d4fde146102e757610116565b8063095ea7b3116100e9578063095ea7b3146101c957806323b872dd146101e557806338812fc81461020157806342842e0e146102315780636352211e1461024d57610116565b806301ffc9a71461011b57806306819f761461014b57806306fdde031461017b578063081812fc14610199575b600080fd5b6101356004803603810190610130919061229b565b6103e5565b60405161014291906122e3565b60405180910390f35b6101656004803603810190610160919061235c565b6104c7565b60405161017291906122e3565b60405180910390f35b610183610520565b6040516101909190612419565b60405180910390f35b6101b360048036038101906101ae9190612471565b6105b2565b6040516101c091906124ad565b60405180910390f35b6101e360048036038101906101de91906124c8565b6105f8565b005b6101ff60048036038101906101fa9190612508565b61070f565b005b61021b6004803603810190610216919061235c565b61076f565b6040516102289190612698565b60405180910390f35b61024b60048036038101906102469190612508565b610a16565b005b61026760048036038101906102629190612471565b610a36565b60405161027491906124ad565b60405180910390f35b6102976004803603810190610292919061235c565b610abc565b6040516102a491906126c9565b60405180910390f35b6102b5610b73565b6040516102c29190612419565b60405180910390f35b6102e560048036038101906102e09190612710565b610c05565b005b61030160048036038101906102fc9190612885565b610c1b565b005b61031d6004803603810190610318919061235c565b610c7d565b60405161032a91906126c9565b60405180910390f35b61034d60048036038101906103489190612471565b610c95565b60405161035a9190612419565b60405180910390f35b61037d6004803603810190610378919061235c565b610cfd565b6040516103909796959493929190612917565b60405180910390f35b6103b360048036038101906103ae919061299b565b610f11565b6040516103c091906122e3565b60405180910390f35b6103e360048036038101906103de9190612a67565b610fa5565b005b60007f80ac58cd000000000000000000000000000000000000000000000000000000007bffffffffffffffffffffffffffffffffffffffffffffffffffffffff1916827bffffffffffffffffffffffffffffffffffffffffffffffffffffffff191614806104b057507f5b5e139f000000000000000000000000000000000000000000000000000000007bffffffffffffffffffffffffffffffffffffffffffffffffffffffff1916827bffffffffffffffffffffffffffffffffffffffffffffffffffffffff1916145b806104c057506104bf82611364565b5b9050919050565b6000600760008373ffffffffffffffffffffffffffffffffffffffff1673ffffffffffffffffffffffffffffffffffffffff16815260200190815260200160002060060160009054906101000a900460ff169050919050565b60606000805461052f90612b5f565b80601f016020809104026020016040519081016040528092919081815260200182805461055b90612b5f565b80156105a85780601f1061057d576101008083540402835291602001916105a8565b820191906000526020600020905b81548152906001019060200180831161058b57829003601f168201915b5050505050905090565b60006105bd826113ce565b6004600083815260200190815260200160002060009054906101000a900473ffffffffffffffffffffffffffffffffffffffff169050919050565b600061060382610a36565b90508073ffffffffffffffffffffffffffffffffffffffff168373ffffffffffffffffffffffffffffffffffffffff1603610673576040517f08c379a000000000000000000000000000000000000000000000000000000000815260040161066a90612c02565b60405180910390fd5b8073ffffffffffffffffffffffffffffffffffffffff16610692611419565b73ffffffffffffffffffffffffffffffffffffffff1614806106c157506106c0816106bb611419565b610f11565b5b610700576040517f08c379a00000000000000000000000000000000000000000000000000000000081526004016106f790612c94565b60405180910390fd5b61070a8383611421565b505050565b61072061071a611419565b826114da565b61075f576040517f08c379a000000000000000000000000000000000000000000000000000000000815260040161075690612d26565b60405180910390fd5b61076a83838361156f565b505050565b6107776121d7565b600760008373ffffffffffffffffffffffffffffffffffffffff1673ffffffffffffffffffffffffffffffffffffffff1681526020019081526020016000206040518060e00160405290816000820160009054906101000a900473ffffffffffffffffffffffffffffffffffffffff1673ffffffffffffffffffffffffffffffffffffffff1673ffffffffffffffffffffffffffffffffffffffff16815260200160018201805461082790612b5f565b80601f016020809104026020016040519081016040528092919081815260200182805461085390612b5f565b80156108a05780601f10610875576101008083540402835291602001916108a0565b820191906000526020600020905b81548152906001019060200180831161088357829003601f168201915b505050505081526020016002820180546108b990612b5f565b80601f01602080910402602001604051908101604052809291908181526020018280546108e590612b5f565b80156109325780601f1061090757610100808354040283529160200191610932565b820191906000526020600020905b81548152906001019060200180831161091557829003601f168201915b5050505050815260200160038201805461094b90612b5f565b80601f016020809104026020016040519081016040528092919081815260200182805461097790612b5f565b80156109c45780601f10610999576101008083540402835291602001916109c4565b820191906000526020600020905b8154815290600101906020018083116109a757829003601f168201915b505050505081526020016004820160009054906101000a900460ff1660ff1660ff168152602001600582015481526020016006820160009054906101000a900460ff1615151515815250509050919050565b610a3183838360405180602001604052806000815250610c1b565b505050565b600080610a4283611868565b9050600073ffffffffffffffffffffffffffffffffffffffff168173ffffffffffffffffffffffffffffffffffffffff1603610ab3576040517f08c379a0000000000000000000000000000000000000000000000000000000008152600401610aaa90612d92565b60405180910390fd5b80915050919050565b60008073ffffffffffffffffffffffffffffffffffffffff168273ffffffffffffffffffffffffffffffffffffffff1603610b2c576040517f08c379a0000000000000000000000000000000000000000000000000000000008152600401610b2390612e24565b60405180910390fd5b600360008373ffffffffffffffffffffffffffffffffffffffff1673ffffffffffffffffffffffffffffffffffffffff168152602001908152602001600020549050919050565b606060018054610b8290612b5f565b80601f0160208091040260200160405190810160405280929190818152602001828054610bae90612b5f565b8015610bfb5780601f10610bd057610100808354040283529160200191610bfb565b820191906000526020600020905b815481529060010190602001808311610bde57829003601f168201915b5050505050905090565b610c17610c10611419565b83836118a5565b5050565b610c2c610c26611419565b836114da565b610c6b576040517f08c379a0000000000000000000000000000000000000000000000000000000008152600401610c6290612d26565b60405180910390fd5b610c7784848484611a11565b50505050565b60086020528060005260406000206000915090505481565b6060610ca0826113ce565b6000610caa611a6d565b90506000815111610cca5760405180602001604052806000815250610cf5565b80610cd484611a84565b604051602001610ce5929190612e80565b6040516020818303038152906040525b915050919050565b60076020528060005260406000206000915090508060000160009054906101000a900473ffffffffffffffffffffffffffffffffffffffff1690806001018054610d4690612b5f565b80601f0160208091040260200160405190810160405280929190818152602001828054610d7290612b5f565b8015610dbf5780601f10610d9457610100808354040283529160200191610dbf565b820191906000526020600020905b815481529060010190602001808311610da257829003601f168201915b505050505090806002018054610dd490612b5f565b80601f0160208091040260200160405190810160405280929190818152602001828054610e0090612b5f565b8015610e4d5780601f10610e2257610100808354040283529160200191610e4d565b820191906000526020600020905b815481529060010190602001808311610e3057829003601f168201915b505050505090806003018054610e6290612b5f565b80601f0160208091040260200160405190810160405280929190818152602001828054610e8e90612b5f565b8015610edb5780601f10610eb057610100808354040283529160200191610edb565b820191906000526020600020905b815481529060010190602001808311610ebe57829003601f168201915b5050505050908060040160009054906101000a900460ff16908060050154908060060160009054906101000a900460ff16905087565b6000600560008473ffffffffffffffffffffffffffffffffffffffff1673ffffffffffffffffffffffffffffffffffffffff16815260200190815260200160002060008373ffffffffffffffffffffffffffffffffffffffff1673ffffffffffffffffffffffffffffffffffffffff16815260200190815260200160002060009054906101000a900460ff16905092915050565b603c8160ff161015610fec576040517f08c379a0000000000000000000000000000000000000000000000000000000008152600401610fe390612ef0565b60405180910390fd5b6000600760003373ffffffffffffffffffffffffffffffffffffffff1673ffffffffffffffffffffffffffffffffffffffff1681526020019081526020016000206005015414611071576040517f08c379a000000000000000000000000000000000000000000000000000000000815260040161106890612f5c565b60405180910390fd5b6040518060e001604052803373ffffffffffffffffffffffffffffffffffffffff16815260200188888080601f016020809104026020016040519081016040528093929190818152602001838380828437600081840152601f19601f82011690508083019250505050505050815260200186868080601f016020809104026020016040519081016040528093929190818152602001838380828437600081840152601f19601f82011690508083019250505050505050815260200184848080601f016020809104026020016040519081016040528093929190818152602001838380828437600081840152601f19601f8201169050808301925050505050505081526020018260ff16815260200142815260200160011515815250600760003373ffffffffffffffffffffffffffffffffffffffff1673ffffffffffffffffffffffffffffffffffffffff16815260200190815260200160002060008201518160000160006101000a81548173ffffffffffffffffffffffffffffffffffffffff021916908373ffffffffffffffffffffffffffffffffffffffff16021790555060208201518160010190816112279190613128565b50604082015181600201908161123d9190613128565b5060608201518160030190816112539190613128565b5060808201518160040160006101000a81548160ff021916908360ff16021790555060a0820151816005015560c08201518160060160006101000a81548160ff0219169083151502179055509050506112ac6006611b52565b60006112b86006611b68565b905080600860003373ffffffffffffffffffffffffffffffffffffffff1673ffffffffffffffffffffffffffffffffffffffff168152602001908152602001600020819055506113083382611b76565b3373ffffffffffffffffffffffffffffffffffffffff167fa30f6679cf27bb9f86510f803ee7d369308ddded76d8570e5ba26e67a4ac666887878560405161135293929190613227565b60405180910390a25050505050505050565b60007f01ffc9a7000000000000000000000000000000000000000000000000000000007bffffffffffffffffffffffffffffffffffffffffffffffffffffffff1916827bffffffffffffffffffffffffffffffffffffffffffffffffffffffff1916149050919050565b6113d781611b94565b611416576040517f08c379a000000000000000000000000000000000000000000000000000000000815260040161140d90612d92565b60405180910390fd5b50565b600033905090565b816004600083815260200190815260200160002060006101000a81548173ffffffffffffffffffffffffffffffffffffffff021916908373ffffffffffffffffffffffffffffffffffffffff160217905550808273ffffffffffffffffffffffffffffffffffffffff1661149483610a36565b73ffffffffffffffffffffffffffffffffffffffff167f8c5be1e5ebec7d5bd14f71427d1e84f3dd0314c0f7b2291e5b200ac8c7c3b92560405160405180910390a45050565b6000806114e683610a36565b90508073ffffffffffffffffffffffffffffffffffffffff168473ffffffffffffffffffffffffffffffffffffffff16148061152857506115278185610f11565b5b8061156657508373ffffffffffffffffffffffffffffffffffffffff1661154e846105b2565b73ffffffffffffffffffffffffffffffffffffffff16145b91505092915050565b8273ffffffffffffffffffffffffffffffffffffffff1661158f82610a36565b73ffffffffffffffffffffffffffffffffffffffff16146115e5576040517f08c379a00000000000000000000000000000000000000000000000000000000081526004016115dc906132cb565b60405180910390fd5b600073ffffffffffffffffffffffffffffffffffffffff168273ffffffffffffffffffffffffffffffffffffffff1603611654576040517f08c379a000000000000000000000000000000000000000000000000000000000815260040161164b9061335d565b60405180910390fd5b6116618383836001611bd5565b8273ffffffffffffffffffffffffffffffffffffffff1661168182610a36565b73ffffffffffffffffffffffffffffffffffffffff16146116d7576040517f08c379a00000000000000000000000000000000000000000000000000000000081526004016116ce906132cb565b60405180910390fd5b6004600082815260200190815260200160002060006101000a81549073ffffffffffffffffffffffffffffffffffffffff02191690556001600360008573ffffffffffffffffffffffffffffffffffffffff1673ffffffffffffffffffffffffffffffffffffffff168152602001908152602001600020600082825403925050819055506001600360008473ffffffffffffffffffffffffffffffffffffffff1673ffffffffffffffffffffffffffffffffffffffff16815260200190815260200160002060008282540192505081905550816002600083815260200190815260200160002060006101000a81548173ffffffffffffffffffffffffffffffffffffffff021916908373ffffffffffffffffffffffffffffffffffffffff160217905550808273ffffffffffffffffffffffffffffffffffffffff168473ffffffffffffffffffffffffffffffffffffffff167fddf252ad1be2c89b69c2b068fc378daa952ba7f163c4a11628f55a4df523b3ef60405160405180910390a46118638383836001611c56565b505050565b60006002600083815260200190815260200160002060009054906101000a900473ffffffffffffffffffffffffffffffffffffffff169050919050565b8173ffffffffffffffffffffffffffffffffffffffff168373ffffffffffffffffffffffffffffffffffffffff1603611913576040517f08c379a000000000000000000000000000000000000000000000000000000000815260040161190a906133c9565b60405180910390fd5b80600560008573ffffffffffffffffffffffffffffffffffffffff1673ffffffffffffffffffffffffffffffffffffffff16815260200190815260200160002060008473ffffffffffffffffffffffffffffffffffffffff1673ffffffffffffffffffffffffffffffffffffffff16815260200190815260200160002060006101000a81548160ff0219169083151502179055508173ffffffffffffffffffffffffffffffffffffffff168373ffffffffffffffffffffffffffffffffffffffff167f17307eab39ab6107e8899845ad3d59bd9653f200f220920489ca2b5937696c3183604051611a0491906122e3565b60405180910390a3505050565b611a1c84848461156f565b611a2884848484611c5c565b611a67576040517f08c379a0000000000000000000000000000000000000000000000000000000008152600401611a5e9061345b565b60405180910390fd5b50505050565b606060405180602001604052806000815250905090565b606060006001611a9384611de3565b01905060008167ffffffffffffffff811115611ab257611ab161275a565b5b6040519080825280601f01601f191660200182016040528015611ae45781602001600182028036833780820191505090505b509050600082602001820190505b600115611b47578080600190039150507f3031323334353637383961626364656600000000000000000000000000000000600a86061a8153600a8581611b3b57611b3a61347b565b5b04945060008503611af2575b819350505050919050565b6001816000016000828254019250508190555050565b600081600001549050919050565b611b90828260405180602001604052806000815250611f36565b5050565b60008073ffffffffffffffffffffffffffffffffffffffff16611bb683611868565b73ffffffffffffffffffffffffffffffffffffffff1614159050919050565b611be184848484611f91565b600073ffffffffffffffffffffffffffffffffffffffff168473ffffffffffffffffffffffffffffffffffffffff1614611c50576040517f08c379a0000000000000000000000000000000000000000000000000000000008152600401611c479061351c565b60405180910390fd5b50505050565b50505050565b6000611c7d8473ffffffffffffffffffffffffffffffffffffffff16611f97565b15611dd6578373ffffffffffffffffffffffffffffffffffffffff1663150b7a02611ca6611419565b8786866040518563ffffffff1660e01b8152600401611cc89493929190613591565b6020604051808303816000875af1925050508015611d0457506040513d601f19601f82011682018060405250810190611d0191906135f2565b60015b611d86573d8060008114611d34576040519150601f19603f3d011682016040523d82523d6000602084013e611d39565b606091505b506000815103611d7e576040517f08c379a0000000000000000000000000000000000000000000000000000000008152600401611d759061345b565b60405180910390fd5b805181602001fd5b63150b7a0260e01b7bffffffffffffffffffffffffffffffffffffffffffffffffffffffff1916817bffffffffffffffffffffffffffffffffffffffffffffffffffffffff191614915050611ddb565b600190505b949350505050565b600080600090507a184f03e93ff9f4daa797ed6e38ed64bf6a1f0100000000000000008310611e41577a184f03e93ff9f4daa797ed6e38ed64bf6a1f0100000000000000008381611e3757611e3661347b565b5b0492506040810190505b6d04ee2d6d415b85acef81000000008310611e7e576d04ee2d6d415b85acef81000000008381611e7457611e7361347b565b5b0492506020810190505b662386f26fc100008310611ead57662386f26fc100008381611ea357611ea261347b565b5b0492506010810190505b6305f5e1008310611ed6576305f5e1008381611ecc57611ecb61347b565b5b0492506008810190505b6127108310611efb576127108381611ef157611ef061347b565b5b0492506004810190505b60648310611f1e5760648381611f1457611f1361347b565b5b0492506002810190505b600a8310611f2d576001810190505b80915050919050565b611f408383611fba565b611f4d6000848484611c5c565b611f8c576040517f08c379a0000000000000000000000000000000000000000000000000000000008152600401611f839061345b565b60405180910390fd5b505050565b50505050565b6000808273ffffffffffffffffffffffffffffffffffffffff163b119050919050565b600073ffffffffffffffffffffffffffffffffffffffff168273ffffffffffffffffffffffffffffffffffffffff1603612029576040517f08c379a00000000000000000000000000000000000000000000000000000000081526004016120209061366b565b60405180910390fd5b61203281611b94565b15612072576040517f08c379a0000000000000000000000000000000000000000000000000000000008152600401612069906136d7565b60405180910390fd5b612080600083836001611bd5565b61208981611b94565b156120c9576040517f08c379a00000000000000000000000000000000000000000000000000000000081526004016120c0906136d7565b60405180910390fd5b6001600360008473ffffffffffffffffffffffffffffffffffffffff1673ffffffffffffffffffffffffffffffffffffffff16815260200190815260200160002060008282540192505081905550816002600083815260200190815260200160002060006101000a81548173ffffffffffffffffffffffffffffffffffffffff021916908373ffffffffffffffffffffffffffffffffffffffff160217905550808273ffffffffffffffffffffffffffffffffffffffff16600073ffffffffffffffffffffffffffffffffffffffff167fddf252ad1be2c89b69c2b068fc378daa952ba7f163c4a11628f55a4df523b3ef60405160405180910390a46121d3600083836001611c56565b5050565b6040518060e00160405280600073ffffffffffffffffffffffffffffffffffffffff168152602001606081526020016060815260200160608152602001600060ff168152602001600081526020016000151581525090565b6000604051905090565b600080fd5b600080fd5b60007fffffffff0000000000000000000000000000000000000000000000000000000082169050919050565b61227881612243565b811461228357600080fd5b50565b6000813590506122958161226f565b92915050565b6000602082840312156122b1576122b0612239565b5b60006122bf84828501612286565b91505092915050565b60008115159050919050565b6122dd816122c8565b82525050565b60006020820190506122f860008301846122d4565b92915050565b600073ffffffffffffffffffffffffffffffffffffffff82169050919050565b6000612329826122fe565b9050919050565b6123398161231e565b811461234457600080fd5b50565b60008135905061235681612330565b92915050565b60006020828403121561237257612371612239565b5b600061238084828501612347565b91505092915050565b600081519050919050565b600082825260208201905092915050565b60005b838110156123c35780820151818401526020810190506123a8565b60008484015250505050565b6000601f19601f8301169050919050565b60006123eb82612389565b6123f58185612394565b93506124058185602086016123a5565b61240e816123cf565b840191505092915050565b6000602082019050818103600083015261243381846123e0565b905092915050565b6000819050919050565b61244e8161243b565b811461245957600080fd5b50565b60008135905061246b81612445565b92915050565b60006020828403121561248757612486612239565b5b60006124958482850161245c565b91505092915050565b6124a78161231e565b82525050565b60006020820190506124c2600083018461249e565b92915050565b600080604083850312156124df576124de612239565b5b60006124ed85828601612347565b92505060206124fe8582860161245c565b9150509250929050565b60008060006060848603121561252157612520612239565b5b600061252f86828701612347565b935050602061254086828701612347565b92505060406125518682870161245c565b9150509250925092565b6125648161231e565b82525050565b600082825260208201905092915050565b600061258682612389565b612590818561256a565b93506125a08185602086016123a5565b6125a9816123cf565b840191505092915050565b600060ff82169050919050565b6125ca816125b4565b82525050565b6125d98161243b565b82525050565b6125e8816122c8565b82525050565b600060e083016000830151612606600086018261255b565b506020830151848203602086015261261e828261257b565b91505060408301518482036040860152612638828261257b565b91505060608301518482036060860152612652828261257b565b915050608083015161266760808601826125c1565b5060a083015161267a60a08601826125d0565b5060c083015161268d60c08601826125df565b508091505092915050565b600060208201905081810360008301526126b281846125ee565b905092915050565b6126c38161243b565b82525050565b60006020820190506126de60008301846126ba565b92915050565b6126ed816122c8565b81146126f857600080fd5b50565b60008135905061270a816126e4565b92915050565b6000806040838503121561272757612726612239565b5b600061273585828601612347565b9250506020612746858286016126fb565b9150509250929050565b600080fd5b600080fd5b7f4e487b7100000000000000000000000000000000000000000000000000000000600052604160045260246000fd5b612792826123cf565b810181811067ffffffffffffffff821117156127b1576127b061275a565b5b80604052505050565b60006127c461222f565b90506127d08282612789565b919050565b600067ffffffffffffffff8211156127f0576127ef61275a565b5b6127f9826123cf565b9050602081019050919050565b82818337600083830152505050565b6000612828612823846127d5565b6127ba565b90508281526020810184848401111561284457612843612755565b5b61284f848285612806565b509392505050565b600082601f83011261286c5761286b612750565b5b813561287c848260208601612815565b91505092915050565b6000806000806080858703121561289f5761289e612239565b5b60006128ad87828801612347565b94505060206128be87828801612347565b93505060406128cf8782880161245c565b925050606085013567ffffffffffffffff8111156128f0576128ef61223e565b5b6128fc87828801612857565b91505092959194509250565b612911816125b4565b82525050565b600060e08201905061292c600083018a61249e565b818103602083015261293e81896123e0565b9050818103604083015261295281886123e0565b9050818103606083015261296681876123e0565b90506129756080830186612908565b61298260a08301856126ba565b61298f60c08301846122d4565b98975050505050505050565b600080604083850312156129b2576129b1612239565b5b60006129c085828601612347565b92505060206129d185828601612347565b9150509250929050565b600080fd5b600080fd5b60008083601f8401126129fb576129fa612750565b5b8235905067ffffffffffffffff811115612a1857612a176129db565b5b602083019150836001820283011115612a3457612a336129e0565b5b9250929050565b612a44816125b4565b8114612a4f57600080fd5b50565b600081359050612a6181612a3b565b92915050565b60008060008060008060006080888a031215612a8657612a85612239565b5b600088013567ffffffffffffffff811115612aa457612aa361223e565b5b612ab08a828b016129e5565b9750975050602088013567ffffffffffffffff811115612ad357612ad261223e565b5b612adf8a828b016129e5565b9550955050604088013567ffffffffffffffff811115612b0257612b0161223e565b5b612b0e8a828b016129e5565b93509350506060612b218a828b01612a52565b91505092959891949750929550565b7f4e487b7100000000000000000000000000000000000000000000000000000000600052602260045260246000fd5b60006002820490506001821680612b7757607f821691505b602082108103612b8a57612b89612b30565b5b50919050565b7f4552433732313a20617070726f76616c20746f2063757272656e74206f776e6560008201527f7200000000000000000000000000000000000000000000000000000000000000602082015250565b6000612bec602183612394565b9150612bf782612b90565b604082019050919050565b60006020820190508181036000830152612c1b81612bdf565b9050919050565b7f4552433732313a20617070726f76652063616c6c6572206973206e6f7420746f60008201527f6b656e206f776e6572206f7220617070726f76656420666f7220616c6c000000602082015250565b6000612c7e603d83612394565b9150612c8982612c22565b604082019050919050565b60006020820190508181036000830152612cad81612c71565b9050919050565b7f4552433732313a2063616c6c6572206973206e6f7420746f6b656e206f776e6560008201527f72206f7220617070726f76656400000000000000000000000000000000000000602082015250565b6000612d10602d83612394565b9150612d1b82612cb4565b604082019050919050565b60006020820190508181036000830152612d3f81612d03565b9050919050565b7f4552433732313a20696e76616c696420746f6b656e2049440000000000000000600082015250565b6000612d7c601883612394565b9150612d8782612d46565b602082019050919050565b60006020820190508181036000830152612dab81612d6f565b9050919050565b7f4552433732313a2061646472657373207a65726f206973206e6f74206120766160008201527f6c6964206f776e65720000000000000000000000000000000000000000000000602082015250565b6000612e0e602983612394565b9150612e1982612db2565b604082019050919050565b60006020820190508181036000830152612e3d81612e01565b9050919050565b600081905092915050565b6000612e5a82612389565b612e648185612e44565b9350612e748185602086016123a5565b80840191505092915050565b6000612e8c8285612e4f565b9150612e988284612e4f565b91508190509392505050565b7f414920676174653a2063726166742073636f726520746f6f206c6f7700000000600082015250565b6000612eda601c83612394565b9150612ee582612ea4565b602082019050919050565b60006020820190508181036000830152612f0981612ecd565b9050919050565b7f4172746973616e20616c72656164792072656769737465726564000000000000600082015250565b6000612f46601a83612394565b9150612f5182612f10565b602082019050919050565b60006020820190508181036000830152612f7581612f39565b9050919050565b60008190508160005260206000209050919050565b60006020601f8301049050919050565b600082821b905092915050565b600060088302612fde7fffffffffffffffffffffffffffffffffffffffffffffffffffffffffffffffff82612fa1565b612fe88683612fa1565b95508019841693508086168417925050509392505050565b6000819050919050565b600061302561302061301b8461243b565b613000565b61243b565b9050919050565b6000819050919050565b61303f8361300a565b61305361304b8261302c565b848454612fae565b825550505050565b600090565b61306861305b565b613073818484613036565b505050565b5b818110156130975761308c600082613060565b600181019050613079565b5050565b601f8211156130dc576130ad81612f7c565b6130b684612f91565b810160208510156130c5578190505b6130d96130d185612f91565b830182613078565b50505b505050565b600082821c905092915050565b60006130ff600019846008026130e1565b1980831691505092915050565b600061311883836130ee565b9150826002028217905092915050565b61313182612389565b67ffffffffffffffff81111561314a5761314961275a565b5b6131548254612b5f565b61315f82828561309b565b600060209050601f8311600181146131925760008415613180578287015190505b61318a858261310c565b8655506131f2565b601f1984166131a086612f7c565b60005b828110156131c8578489015182556001820191506020850194506020810190506131a3565b868310156131e557848901516131e1601f8916826130ee565b8355505b6001600288020188555050505b505050505050565b60006132068385612394565b9350613213838584612806565b61321c836123cf565b840190509392505050565b600060408201905081810360008301526132428185876131fa565b90506132516020830184612908565b949350505050565b7f4552433732313a207472616e736665722066726f6d20696e636f72726563742060008201527f6f776e6572000000000000000000000000000000000000000000000000000000602082015250565b60006132b5602583612394565b91506132c082613259565b604082019050919050565b600060208201905081810360008301526132e4816132a8565b9050919050565b7f4552433732313a207472616e7366657220746f20746865207a65726f2061646460008201527f7265737300000000000000000000000000000000000000000000000000000000602082015250565b6000613347602483612394565b9150613352826132eb565b604082019050919050565b600060208201905081810360008301526133768161333a565b9050919050565b7f4552433732313a20617070726f766520746f2063616c6c657200000000000000600082015250565b60006133b3601983612394565b91506133be8261337d565b602082019050919050565b600060208201905081810360008301526133e2816133a6565b9050919050565b7f4552433732313a207472616e7366657220746f206e6f6e20455243373231526560008201527f63656976657220696d706c656d656e7465720000000000000000000000000000602082015250565b6000613445603283612394565b9150613450826133e9565b604082019050919050565b6000602082019050818103600083015261347481613438565b9050919050565b7f4e487b7100000000000000000000000000000000000000000000000000000000600052601260045260246000fd5b7f536f756c626f756e643a206e6f6e2d7472616e7366657261626c6520746f6b6560008201527f6e00000000000000000000000000000000000000000000000000000000000000602082015250565b6000613506602183612394565b9150613511826134aa565b604082019050919050565b60006020820190508181036000830152613535816134f9565b9050919050565b600081519050919050565b600082825260208201905092915050565b60006135638261353c565b61356d8185613547565b935061357d8185602086016123a5565b613586816123cf565b840191505092915050565b60006080820190506135a6600083018761249e565b6135b3602083018661249e565b6135c060408301856126ba565b81810360608301526135d28184613558565b905095945050505050565b6000815190506135ec8161226f565b92915050565b60006020828403121561360857613607612239565b5b6000613616848285016135dd565b91505092915050565b7f4552433732313a206d696e7420746f20746865207a65726f2061646472657373600082015250565b6000613655602083612394565b91506136608261361f565b602082019050919050565b6000602082019050818103600083015261368481613648565b9050919050565b7f4552433732313a20746f6b656e20616c7265616479206d696e74656400000000600082015250565b60006136c1601c83612394565b91506136cc8261368b565b602082019050919050565b600060208201905081810360008301526136f0816136b4565b905091905056fea264697066735822122005e6c2f40e5f301ffaacf6932df75590f9aada2d02b5c04a8cb9de2485ece9bf64736f6c63430008140033",
  "linkReferences": {},
  "deployedLinkReferences": {}
}